:10000000D5C1000004C2000002C2000000C200000E
:10001000FEC10000FCC10000FAC10000F8C10000F0
:10002000F6C10000F4C10000F2C10000F0C1000000
:10003000EEC10000ECC10000EAC10000E8C1000010
:10004000E6C100006BC20000E2C10000E0C1000098
:10005000DEC10000DCC10000DAC100000C948A0897
:10006000D6C100000C94B80B0C94EE0BD0C100006C
:10007000CEC10000CCC10000CAC10000C8C1000050
:10008000C6C10000C4C10000C2C10000C0C1000060
:10009000BEC10000BCC10000BAC10000B8C1000070
:1000A000B6C10000B4C10000B2C10000B0C1000080
:1000B000AEC10000ACC10000AAC10000A8C1000090
:1000C000A6C10000A4C10000A2C10000A0C10000A0
:1000D0009EC100009CC100009AC1000098C10000B0
:1000E00096C10000A009A309920996099C09DA09A2
:1000F000A709AB09B109B509B909BF09C309C709FE
:10010000DA09CD09D109D509504120506F776572C0
:1001100009203D2025530D0A00435243204C656EB3
:1001200067746809203D2025530D0A004D6F6465F2
:100130006C0909203D2025530D0A0044617461209B
:100140005261746509203D2025530D0A0044594E23
:1001500050442F4645415455524500434F4E464961
:1001600047090052465F53455455500052465F437D
:10017000480900454E5F52584144445200454E5F85
:100180004141090052585F50575F50302D3600549E
:10019000585F41444452090052585F414444525F01
:1001A00050322D350052585F414444525F50302D3B
:1001B00031000D0A002530327800203078002553B8
:1001C00009203D000D0A00203078253032780025C6
:1001D0005309203D005354415455530909203D20F3
:1001E0003078253032782052585F44523D257820AF
:1001F00054585F44533D2578204D41585F52543D3B
:1002000025782052585F505F4E4F3D257820545836
:100210005F46554C4C3D25780D0A001112131415FC
:10022000160A0B0C0D0E0F0001020304054B0244CD
:10023000023C02350250415F4D41580050415F4839
:100240004947480050415F4C4F570050415F4D496E
:100250004E006702600258023136206269747300F2
:100260003820626974730044697361626C6564006C
:100270007E0274026E524632344C30312B006E5284
:100280004632344C3031009B0295028D02323530BB
:100290004B42505300324D42505300314D42505367
:1002A0000000000A0B02090C0D0E080703040100F0
:1002B000000000000000000000000000000000003E
:1002C00000000000000000000000000000121110FB
:1002D000000000000000000000000000000000001E
:1002E000000000000000000102102020080810207B
:1002F00040102040800201020108040201010204B2
:100300000810204080804020100804020180040270
:1003100001804020100804020108040201010204C7
:1003200008102040800102040810204080050505C7
:1003300005070508080808020202020A0A0808045C
:10034000040404010101010101010103030303038A
:10035000030303040707070C0C0C0C0C0C0C0C0219
:1003600002020206060606060606060B0B0B0B0B20
:100370000B0B0B00002200250028002B002E003163
:1003800000340002010000050108010B01000021FA
:1003900000240027002A002D003000330001010056
:1003A00000040107010A01002D03200C11241FBEC7
:1003B000CFEFD1E2DEBFCDBF00E00CBF12E0A0E086
:1003C000B2E0E0EFF3E200E00BBF02C007900D9255
:1003D000A43AB107D9F723E0A4EAB2E001C01D9224
:1003E000AA36B207E1F713E0CCEAD3E000E006C09A
:1003F00022970109FE010BBF0E94240DC83AD107C4
:1004000080E00807A9F70E94640C0C94F611F8CD5F
:10041000CF93C82FE091C302F091C4020190F08104
:10042000E02D682F83EC92E019958C2F992787FD9A
:100430009095CF91089560E070E088E092E00C9490
:10044000960D0895CF93DF931F921F92CDB7DEB71D
:100450009091A80280910A0298135BC089EA92E009
:100460007FD38091A7028F938091A6028F9387E11B
:1004700092E09F938F930E94E00D42E066EA72E063
:1004800089EA92E0E6D30F900F900F900F908111C0
:1004900008C08AE292E09F938F930E94E00D0F9034
:1004A0000F9089EA92E07ED47FD69F938F937F93BB
:1004B0006F9384E392E09F938F930E94E00D0F90DF
:1004C0000F900F900F900F900F9089EA92E0DFD37A
:1004D000811102C069D6F9CF42E0BE016F5F7F4F44
:1004E00089EA92E0D7D38A818F9389818F93809113
:1004F000A7028F938091A6028F9384E492E09F934A
:100500008F930E94E00D0F900F900F900F900F901F
:100510000F900F900F90DF91CF9108951F920F923F
:100520000FB60F9211240BB60F922F933F934F9358
:100530005F936F937F938F939F93AF93BF93EF934B
:10054000FF938091A4029091A50201969093A50239
:100550008093A4020A9791F422E330E040E050E057
:1005600060E070E0CB010E94BA0C7093A702609328
:10057000A60268DF1092A5021092A402FF91EF91EB
:10058000BF91AF919F918F917F916F915F914F91AB
:100590003F912F910F900BBE0F900FBE0F901F90A9
:1005A000189589EA92E082D461E089EA92E033D436
:1005B0004FE06FE089EA92E084D56BE072E089EA6F
:1005C00092E072D341E152E061E089EA92E083D3A4
:1005D00089EA92E0E7D389EA92E0E5C410928000CC
:1005E000E1E8F0E01082109285001092840088E427
:1005F00098EE909389008093880080818860808342
:10060000808184608083EFE6F0E080818260808377
:100610000895F894E3DF7894089526E040E051EEE1
:1006200060E070E083EC92E00E94580B04DF80E60B
:1006300092E09F938F930E94E00D1092A702109278
:10064000A6021092A5021092A40280910A02809341
:10065000A802A7DF0F900F90DCCF48E067E089EA9F
:1006600092E06DC28EBD00000DB407FEFDCF8EB5C9
:1006700008952CB52F7D2CBD2CB5237F2CBD2CB51A
:100680002C7F2CBD2DB521602DBDFC018181CCD6E8
:1006900085E090E0D1C5FC01808191818913C4C6B9
:1006A000089560E0E6CF61E0E4CFCF92DF92EF9271
:1006B000FF920F931F93CF93DF9300D0CDB7DEB798
:1006C0008C01F22E4A835B836983EBDF6981862F7D
:1006D0008F71C8DFE82E4A81C42E5B81D52EF40EBF
:1006E000FC1431F08FEFBEDFF60181936F01F8CF7C
:1006F000C801D9DF8E2D0F900F900F90DF91CF9111
:100700001F910F91FF90EF90DF90CF900895EF929F
:10071000FF921F93CF93DF931F92CDB7DEB77C017B
:100720006983BFDF6981862F8F719CDF8FEF9ADF2E
:10073000182FC701B8DF812F0F90DF91CF911F9144
:10074000FF90EF900895CF92DF92EF92FF920F9378
:100750001F93CF93DF9300D0CDB7DEB78C01F22E7D
:100760004A835B8369839DDF6981862F8F718062F5
:1007700079DFE82E4A81C42E5B81D52EF40EFC145D
:1007800029F0F60181916F016DDFF9CFC8018BDF90
:100790008E2D0F900F900F90DF91CF911F910F91A1
:1007A000FF90EF90DF90CF900895EF92FF921F930C
:1007B000CF93DF931F921F92CDB7DEB77C014A83A0
:1007C00069836FDF6981862F8F7180624BDF182FFD
:1007D0004A81842F47DFC70166DF812F0F900F907A
:1007E000DF91CF911F91FF90EF900895AF92BF924C
:1007F000DF92EF92FF920F931F93CF93DF9300D07E
:10080000CDB7DEB78C01FC01E380F42EE41608F4CA
:10081000FE2CF8018481811102C0EF1801C0E12C87
:10082000C80129836A837B833CDF2981822F1ADFF9
:10083000D82E6A81A62E7B81B72EF60EFA1429F0E7
:10084000F50181915F010EDFF9CFEE2021F080E00C
:1008500009DFEA94FACFC80126DF8D2D0F900F90A3
:100860000F90DF91CF911F910F91FF90EF90DF904C
:10087000BF90AF900895AF92BF92DF92EF92FF9238
:100880000F931F93CF93DF931F921F92CDB7DEB7C5
:100890008C01FC01E380F42EE41608F4FE2CF80130
:1008A0008481811102C0EF1801C0E12CC801698365
:1008B0007A83F7DE81E6D6DED82E6981A62E7A818C
:1008C000B72EF60EFA1431F08FEFCCDEF5018193DE
:1008D0005F01F8CFEE2021F08FEFC4DEEA94FACF6B
:1008E000C801E1DE8D2D0F900F90DF91CF911F9108
:1008F0000F91FF90EF90DF90BF90AF900895EF922F
:10090000FF921F93CF93DF931F92CDB7DEB77C0189
:100910006983C7DE6981862FA5DE182FC701C3DE74
:10092000812F0F90DF91CF911F91FF90EF9008954D
:1009300062EEE5CF61EEE3CF6FEFE1CF862F90E07F
:10094000262F21701F922F93959587958770992751
:100950009F938F9364FB882780F91F928F9365FB89
:10096000882780F91F928F9366FB882780F91F9252
:100970008F931F926F9385ED91E09F938F930E94C9
:10098000F10D8DB79EB70E960FB6F8949EBF0FBEB1
:100990008DBF0895CF92DF92EF92FF920F931F9336
:1009A000CF93DF931F92CDB7DEB78C01F22E7F93EA
:1009B0006F93EFECF1E0FF93EF9349830E94F10D09
:1009C0004981F40E0F900F900F900F9037ECC32ECB
:1009D00031E0D32E4F1591F0EE24E394E40E642F12
:1009E000C80195DE1F928F93DF92CF920E94F10D86
:1009F0000F900F900F900F904E2DECCF84EC91E064
:100A00009F938F930E94F10D0F900F900F90DF91A5
:100A1000CF911F910F91FF90EF90DF90CF900895AD
:100A20002F923F924F925F926F927F928F929F92FE
:100A3000AF92BF92CF92DF92EF92FF920F931F93EC
:100A4000CF93DF931F92CDB7DEB77C01322E4DB628
:100A50005EB67F936F938EEB91E09F938F93498364
:100A60000E94F10D3981330E0F900F900F900F906F
:100A70004AEBC42E41E0D42E55EBA52E51E0B52E05
:100A80003315E1F16DB67EB6F7012285822E912CE9
:100A90008DB79EB7881999090FB6F8949EBF0FBEFF
:100AA0008DBF0DB71EB70F5F1F4F22242394230E57
:100AB000A801632FC701F9DDDF92CF920E94F10DEB
:100AC000800E911E0F900F90F1E08F1A9108801602
:100AD000910668F0F40180811F928F93BF92AF92CC
:100AE0000E94F10D0F900F900F900F90EDCF0FB669
:100AF000F8947EBE0FBE6DBE322DC2CF82EB91E068
:100B00009F938F930E94F10D0F900F900FB6F89462
:100B10005EBE0FBE4DBE0F90DF91CF911F910F9122
:100B2000FF90EF90DF90CF90BF90AF909F908F900D
:100B30007F906F905F904F903F902F900895FC01B1
:100B400060834183128280E28383148285E08287FE
:100B500015820895462F603808F04FE765E025CEEE
:100B6000CF93DF93EC0160E096DD8B859C8564D3A9
:100B70006DE1CE01CCDD81FF05C08B859C855CD30A
:100B8000CE01D8DE60E0CE01C2DD482F4E7F60E0AE
:100B9000CE010BDE62E0CE01BADDE7E2F2E0E491E5
:100BA00021E030E001C0220FEA95EAF7822B482FBE
:100BB00062E0CE01DF91CF91F8CDCF93DF93EC01CE
:100BC00060E0A5DD81FD0FC060E0CE01A0DD482F13
:100BD000426060E0CE01E9DD65E070E080E090E039
:100BE000DF91CF9104C3DF91CF9108950F93CF93FD
:100BF000DF93EC01222311F020EB01C020EACE01AB
:100C0000F5DD002331F061E0CE01DF91CF910F914E
:100C100042CDDF91CF910F9108950F93CF93DF9342
:100C2000EC0101E0E3DFCE0187DE8073E1F360E0F9
:100C3000CE0131DD40E767E0CE01B7DD84FF04C0BF
:100C4000CE0178DE80E001C081E0DF91CF910F918D
:100C5000089520E0E2CF0F931F93CF93DF938C0191
:100C6000EB0167E154DD80FD0AC0209751F0C80117
:100C700063DE90E0959587958770888302C080E059
:100C800001C081E0DF91CF911F910F91089560E045
:100C900070E0E1CFCF93DF93EC01EDDD40E767E05B
:100CA000CE01DF91CF9181CD0F931F93CF93DF932F
:100CB000EC018B012A85AB016AE045DD2A85A8019C
:100CC00060E1CE0140DD4B8161E1CE01DF91CF914A
:100CD0001F910F916ACDFF920F931F93CF93DF93D4
:100CE000EC01F62E8A01611106C04A8550E0B80178
:100CF000059613D707C086E0861708F433C081E055
:100D0000681307C0EF2DF0E0EF5DFD4F64912A8579
:100D100006C0E62FF0E0EF5DFD4F649121E0A801F1
:100D2000CE0111DD0F2D10E0F801E55EFD4F64915D
:100D30004B81CE013ADD62E0CE01E9DCF801E95DEC
:100D4000FD4F049121E030E001C0220F0A95EAF73F
:100D5000822B482F62E0CE01DF91CF911F910F913E
:100D6000FF9023CDDF91CF911F910F91FF900895B8
:100D70001F93CF93DF93EC01162F62E0C8DCE12FC5
:100D8000F0E0E95DFD4FE49141E050E001C0440F27
:100D9000EA95EAF74095482362E0CE01DF91CF91D2
:100DA0001F9103CDCF93DF93EC0107DF60E0CE010D
:100DB000AEDC482F416060E0CE01F7DC40E767E041
:100DC000CE01F3DC61E0CE0166DC8D81882341F049
:100DD0002A85AE014B5F5F4F6AE0CE01B4DC03C0F1
:100DE00060E0CE01C5DF6DE1CE0191DC81FF04C082
:100DF000CE01DF91CF919ECDDF91CF910895CF931A
:100E0000DF93EC014EDC80E52DDC83E72BDCCE01AB
:100E1000DF91CF9148CC662311F04FE301C040E051
:100E200061E0C3CC66E073DC867086950895EF922E
:100E3000FF920F931F93CF93DF931F92CDB7DEB72F
:100E40007C018B0166E063DC582F577D0230110571
:100E500031F450620BE910E020E030E00DC00130C9
:100E6000110529F005E510E020E030E005C05860EC
:100E700001E410E020E030E0F701038714872587C4
:100E80003687452F66E0C70159838FDC66E0C701CE
:100E90003EDC91E05981851390E0892F0F90DF911E
:100EA000CF911F910F91FF90EF900895CF93DF9313
:100EB000EC0188819981891711F061E07CD28981E8
:100EC0009881981711F061E076D203D160E0CE01ED
:100ED000E2DB61E0CE01CDDB65E070E080E090E038
:100EE00086D14CE060E0CE0160DC4FE564E0CE01ED
:100EF0005CDC62E070E0CE019ADF882311F081E0D3
:100F00008A8360E070E0CE0192DFCE0178DF40E0BE
:100F10006DE1CE014ADC40E06CE1CE0146DC40E709
:100F200067E0CE0142DC6CE4CE0114DECE0100DDD0
:100F3000CE0100DDCE0141DE60E0CE01E8DB482FCE
:100F40004E7F60E0CE0131DC80E0DF91CF910895EB
:100F500066E0DDDB282F2872203231F081E090E05E
:100F6000283021F080E0089582E090E008951F93FA
:100F7000CF93DF93EC0160E0CADB182F61E0CE0174
:100F8000C6DB13FD02C0882329F012FF06C082E0F1
:100F900090E005C080E090E002C081E090E0DF9149
:100FA000CF911F910895CF93DF93EC01C5DC682F9B
:100FB000CE01C4DC22E04AE065EA71E0CE0130DD1A
:100FC00024E04CE068E971E0CE01E4DC21E040E19E
:100FD0006FE871E0CE0124DD26E041E164E871E0D4
:100FE000CE01D8DC21E041E06DE771E0CE01D2DC3A
:100FF00021E042E063E771E0CE01CCDC21E045E096
:101000006CE671E0CE01C6DC21E046E063E671E00B
:10101000CE01C0DC21E040E06BE571E0CE01BADC3E
:1010200022E04CE16DE471E0CE01B4DCCE0190DF52
:10103000880F991F89579D4FFC01859194919F932B
:101040008F938BE391E09F938F93CBD5EA81F0E070
:10105000EE0FFF1FE059FD4F859194919F938F9361
:101060008CE291E09F938F93BCD5CE0180DF880FF7
:10107000991F8E5A9D4FFC01859194919F938F9358
:1010800089E191E09F938F93ACD5CE01CBDEE82F21
:10109000F0E0EE0FFF1FE35DFD4F859194919F936C
:1010A0008F9388E091E09F938F939BD58DB79EB7E8
:1010B00040960FB6F8949EBF0FBE8DBFDF91CF91C3
:1010C000089520E1629FB00111244F70462B64E027
:1010D0006CCBCF93CFB7F8948091B902811112C035
:1010E00061E085E3A1D161E085E365D18CB58061E4
:1010F0008CBD8CB580648CBD61E084E35CD161E023
:1011000083E359D18091B9028F5F8093B902CFBF39
:10111000CF9108951F920F920FB60F9211242F9323
:101120003F938F939F93AF93BF938091BB02909116
:10113000BC02A091BD02B091BE023091BA0223E080
:10114000230F2D3720F40196A11DB11D05C026E8FF
:10115000230F0296A11DB11D2093BA028093BB02FA
:101160009093BC02A093BD02B093BE028091BF02D7
:101170009091C002A091C102B091C2020196A11D3E
:10118000B11D8093BF029093C002A093C102B0939F
:10119000C202BF91AF919F918F913F912F910F907C
:1011A0000FBE0F901F9018953FB7F8948091BF0223
:1011B0009091C002A091C102B091C20226B5A89B35
:1011C00005C02F3F19F00196A11DB11D3FBF662735
:1011D000782F892F9A2F620F711D811D911D42E07A
:1011E000660F771F881F991F4A95D1F70895CF92F0
:1011F000DF92EF92FF92CF93DF936B017C01D4DFFC
:10120000EB01C114D104E104F10479F0CED3CCDFB9
:101210006C1B7D0B683E7340A0F381E0C81AD108B7
:10122000E108F108C851DC4FECCFDF91CF91FF907E
:10123000EF90DF90CF900895019739F0880F991FB4
:10124000880F991F02970197F1F70895789484B554
:10125000826084BD84B5816084BD85B5826085BDB2
:1012600085B5816085BDEEE6F0E080818160808398
:10127000E1E8F0E01082808182608083808181607B
:101280008083E0E8F0E0808181608083E1EBF0E042
:10129000808184608083E0EBF0E0808181608083E6
:1012A000E1E9F0E0808182608083808181608083D9
:1012B000E0E9F0E0808181608083E1EAF0E0808114
:1012C00082608083808181608083E0EAF0E08081B9
:1012D00081608083E1E2F1E08081826080838081AF
:1012E00081608083E0E2F1E0808181608083EAE7D1
:1012F000F0E080818460808380818260808380814F
:10130000816080838081806880831092C10008950D
:1013100090E0FC013197E231F10508F04BC0EE5846
:10132000FF4F82C3809180008F7703C0809180003F
:101330008F7D80938000089580918000877FF9CF12
:1013400084B58F7702C084B58F7D84BD0895809168
:10135000B0008F7703C08091B0008F7D8093B00084
:101360000895809190008F7707C0809190008F7DC5
:1013700003C080919000877F8093900008958091B2
:10138000A0008F7707C08091A0008F7D03C080915F
:10139000A000877F8093A0000895809120018F771F
:1013A00007C0809120018F7D03C080912001877F3D
:1013B000809320010895CF93DF9390E0FC01E951E1
:1013C000FD4F2491FC01E35DFC4F8491882349F19A
:1013D00090E0880F991FFC01E357FC4FA591B49151
:1013E0008D589C4FFC01C591D4919FB7611108C0E5
:1013F000F8948C91209582238C93888182230AC053
:10140000623051F4F8948C91322F309583238C9371
:101410008881822B888304C0F8948C91822B8C93D2
:101420009FBFDF91CF9108950F931F93CF93DF93C9
:101430001F92CDB7DEB7282F30E0F901EF55FD4FF1
:101440008491F901E951FD4F1491F901E35DFC4FDD
:1014500004910023C1F0882319F0698359DF698161
:10146000E02FF0E0EE0FFF1FED58FC4FA591B49177
:101470009FB7F8948C91611103C01095812301C02E
:10148000812B8C939FBF0F90DF91CF911F910F9174
:101490000895FC01818D228D90E0805C9F4F821B1E
:1014A00091098F7399270895FC01918D828D98176A
:1014B00031F0828DE80FF11D858D90E008958FEF5A
:1014C0009FEF0895FC01918D828D981761F0828DB8
:1014D000DF01A80FB11D5D968C91928D9F5F9F7368
:1014E000928F90E008958FEF9FEF089587E19CE041
:1014F000892B39F080E090E0892B19F098D1811187
:1015000025C080E090E0892B41F080E090E0892BBD
:1015100021F00E94000081111CC080E090E0892B26
:1015200041F080E090E0892B21F00E9400008111C1
:1015300013C080E090E0892BA1F080E090E0892B3F
:1015400081F00E94000081110AC008950E940000ED
:10155000D8CF0E940000E1CF0E940000EACF0C9497
:1015600000000895FC01848DDF01A80FB11DA35A6E
:10157000BF4F2C91848D90E001968F739927848FB3
:10158000A689B7892C93A089B1898C9180648C93AA
:10159000938D848D981306C00288F389E02D808195
:1015A0008F7D80830895CF93DF93EC01888D88230E
:1015B000C1F0EA89FB89808185FD05C0A889B989C8
:1015C0008C9186FD0EC00FB607FCF5CF808185FF9C
:1015D000F2CFA889B9898C9185FFEDCFCE01C2DF0A
:1015E000E8CFDF91CF910895CF92DF92FF920F93D2
:1015F0001F93CF93DF931F92CDB7DEB76C01DC0151
:101600005B969C915B975C968C915C97981307C056
:101610005096ED91FC915197808185FD31C0F60186
:10162000038D10E00F5F1F4F0F731127F02EF6018F
:10163000848DF81210C00FB607FCF9CFD601509672
:10164000ED91FC915197808185FFF1CFC6016983AF
:1016500089DF6981ECCF838DE80FF11DE35AFF4FDD
:101660006083D6015B960C935B975296ED91FC914B
:10167000539780818062808381E058968C930DC05F
:10168000D6015696ED91FC91579760835096ED9157
:10169000FC91519780818064808381E090E00F907D
:1016A000DF91CF911F910F91FF90DF90CF90089520
:1016B000BF92CF92DF92EF92FF92CF93DF93EC0134
:1016C0006A017B01B22EE889F98982E080834115A5
:1016D00081EE58076105710599F060E079E08DE3CE
:1016E00090E0A701960162D12150310941095109C9
:1016F0005695479537952795211580E1380790F045
:10170000E889F989108260E874E88EE190E0A70129
:1017100096014CD1215031094109510956954795FF
:1017200037952795EC85FD853083EE85FF852083F1
:10173000188EEC89FD89B082EA89FB8980818061FD
:101740008083EA89FB89808188608083EA89FB89BC
:10175000808180688083EA89FB8980818F7D808396
:10176000DF91CF91FF90EF90DF90CF90BF900895E1
:101770001F920F920FB60F9211240BB60F922F9358
:101780008F939F93EF93FF93E091D302F091D40254
:101790008081E091D902F091DA0282FD12C090813D
:1017A0008091DC028F5F8F732091DD02821751F0F0
:1017B000E091DC02F0E0ED53FD4F958F8093DC0269
:1017C00001C08081FF91EF919F918F912F910F9098
:1017D0000BBE0F900FBE0F901F9018951F920F9287
:1017E0000FB60F9211240BB60F922F933F934F9386
:1017F0005F936F937F938F939F93AF93BF93EF9379
:10180000FF9383EC92E0AEDEFF91EF91BF91AF9139
:101810009F918F917F916F915F914F913F912F9108
:101820000F900BBE0F900FBE0F901F90189583EC7A
:1018300092E02FDE21E0892B09F420E0822F089529
:101840001092C6021092C50288EE93E0A0E0B0E0CC
:101850008093C7029093C802A093C902B093CA02B2
:1018600087E992E09093C4028093C30285EC90E0F4
:101870009093D0028093CF0284EC90E09093D202B8
:101880008093D10280EC90E09093D4028093D302B5
:1018900081EC90E09093D6028093D50282EC90E0A8
:1018A0009093D8028093D70286EC90E09093DA026E
:1018B0008093D9021092DC021092DD021092DE02B7
:1018C0001092DF0208950895C1DCFDDF0E940D0330
:1018D000C6E7DAE00E9421022097E1F307DEFACFA3
:1018E000CF92DF92EF92FF920F931F93CF93DF93EC
:1018F0006C017A01EB01E60EF71E00E010E0CE1558
:10190000DF0561F06991D601ED91FC910190F081C4
:10191000E02DC6011995080F191FF1CFC801DF91FD
:10192000CF911F910F91FF90EF90DF90CF9008958E
:10193000CF93DF9300D01F92CDB7DEB79B01AC01F0
:10194000611571058105910559F069833A834B83CF
:101950005C83D7D029813A814B815C8149D003C017
:1019600060E070E0CB010F900F900F900F90DF912F
:10197000CF910895CF92DF92EF92FF926B017C019D
:1019800062177307840795075CF4CA01B9016C19E3
:101990007D098E099F09CCDF6C0D7D1D8E1D9F1D5D
:1019A000FF90EF90DF90CF9008950895A1E21A2E56
:1019B000AA1BBB1BFD010DC0AA1FBB1FEE1FFF1FF3
:1019C000A217B307E407F50720F0A21BB30BE40B43
:1019D000F50B661F771F881F991F1A9469F760958A
:1019E0007095809590959B01AC01BD01CF01089544
:1019F000052E97FB16F400940FD057FD05D0D6DFC7
:101A000007FC02D046F408C05095409530952195CA
:101A10003F4F4F4F5F4F089590958095709561951A
:101A20007F4F8F4F9F4F0895EE0FFF1F0590F4914A
:101A3000E02D19940DD0A59F900DB49F900DA49FFB
:101A4000800D911D112408950790F691E02D1994B1
:101A5000A29FB001B39FC001A39F700D811D1124EF
:101A6000911DB29F700D811D1124911D08958F92BB
:101A70009F92AF92BF92CF92DF92EF92FF92CF935D
:101A8000DF93EC01688179818A819B816115710501
:101A90008105910521F464E279ED8BE597E02DE174
:101AA00033EF41E050E0A4DF49015A019B01AC0152
:101AB000A7EAB1E4BFDF6B017C01ACEEB4EFA50196
:101AC000940190D4C60ED71EE81EF91EF7FE06C07C
:101AD00081E0C81AD108E10880E8F80AC882D982F2
:101AE000EA82FB82C701B6019F77DF91CF91FF9019
:101AF000EF90DF90CF90BF90AF909F908F90089520
:101B0000B6CF80E092E0B3CF609300027093010201
:101B100080930202909303020895FB01DC0102C04E
:101B200001900D9241505040D8F708950F931F93A4
:101B3000CF93DF93EC018B01009731F461157105B0
:101B400019F480E090E037C06EE070E081E090E052
:101B500059D2FC010097A9F380E883830115110590
:101B600071F01387028781E88383809160039091ED
:101B70006103892B21F4F0936103E09360032097C4
:101B8000C9F0D187C087838182608383809162039B
:101B900090916303892B71F4F0936303E0936203E4
:101BA0008091640390916503892B21F4F093650380
:101BB000E0936403CF01DF91CF911F910F910895BE
:101BC000CF93DF93CDB7DEB7FE0136966191719169
:101BD000AF01809162039091630326D0DF91CF9192
:101BE00008950F931F93CF93DF93CDB7DEB7FE0118
:101BF00038966191719102E613E0D8018D919C9124
:101C0000DC0113962C911397286013962C93AF0147
:101C10000BD0D801ED91FC912381277F2383DF91A5
:101C2000CF911F910F9108952F923F924F925F9203
:101C30006F927F928F929F92AF92BF92CF92DF92DC
:101C4000EF92FF920F931F93CF93DF93CDB7DEB741
:101C50002C970FB6F894DEBF0FBECDBF7C016B0191
:101C60008A01FC0117821682838181FFB0C1CE01F7
:101C700001964C01F7019381F60193FD859193FF45
:101C800081916F01882309F49EC1853239F493FD57
:101C9000859193FF81916F01853221F4B70190E026
:101CA0000FD3E8CF512C312C20E02032A0F48B321E
:101CB00069F030F4803259F0833269F420612CC02D
:101CC0008D3239F0803339F4216026C022602460DF
:101CD00023C0286021C027FD27C030ED380F3A30DF
:101CE00078F426FF06C0FAE05F9E300D1124532ED3
:101CF00013C08AE0389E300D1124332E20620CC0B0
:101D00008E3221F426FD5FC1206406C08C3611F4AA
:101D1000206802C0883641F4F60193FD859193FF57
:101D200081916F018111C1CF982F9F7D9554933080
:101D300028F40C5F1F4FFFE3F9830DC0833631F0A9
:101D4000833771F0833509F057C021C0F8018081D5
:101D500089830E5F1F4F44244394512C540114C0B7
:101D60003801F2E06F0E711CF801A080B18026FFEF
:101D700003C0652D70E002C06FEF7FEFC5012C87B7
:101D800094D22C0183012C852F77222E16C0380186
:101D9000F2E06F0E711CF801A080B18026FF03C035
:101DA000652D70E002C06FEF7FEFC5012C876BD20D
:101DB0002C012C852068222E830123FC19C0832D41
:101DC00090E048165906A0F4B70180E290E078D27E
:101DD0003A94F5CFF50127FC859127FE81915F01AB
:101DE000B70190E06DD231103A94F1E04F1A5108EA
:101DF0004114510479F7DEC0843611F0893631F58B
:101E0000F80127FF07C060817181828193810C5F97
:101E10001F4F08C060817181882777FD8095982FBA
:101E20000E5F1F4F2F76B22E97FF09C090958095B9
:101E3000709561957F4F8F4F9F4F2068B22E2AE09B
:101E400030E0A4016FD2A82EA81843C0853729F42A
:101E50002F7EB22E2AE030E025C0F22FF97FBF2E70
:101E60008F36C1F018F4883579F0ADC0803719F09D
:101E7000883721F0A8C02F2F2061B22EB4FE0DC0EC
:101E80008B2D8460B82E09C024FF0AC09F2F966056
:101E9000B92E06C028E030E005C020E130E002C0E5
:101EA00020E132E0F801B7FE07C0608171818281D4
:101EB00093810C5F1F4F06C06081718180E090E0CC
:101EC0000E5F1F4FA4012ED2A82EA818FB2DFF775E
:101ED000BF2EB6FE0BC02B2D2E7FA51450F4B4FEE2
:101EE0000AC0B2FC08C02B2D2E7E05C07A2C2B2DEB
:101EF00003C07A2C01C0752C24FF0DC0FE01EA0D31
:101F0000F11D8081803311F4297E09C022FF06C0B3
:101F10007394739404C0822F867809F0739423FD20
:101F200012C020FF06C05A2C731418F4530C571813
:101F3000732C731460F4B70180E290E02C87C0D159
:101F400073942C85F6CF731410F4371801C0312C1C
:101F500024FF11C0B70180E390E02C87B1D12C851C
:101F600022FF16C021FF03C088E590E002C088E789
:101F700090E0B7010CC0822F867851F021FD02C09D
:101F800080E201C08BE227FD8DE2B70190E098D19D
:101F9000A51430F4B70180E390E092D15A94F8CFC1
:101FA000AA94F401EA0DF11D8081B70190E088D177
:101FB000A110F6CF332009F45DCEB70180E290E0A6
:101FC0007FD13A94F7CFF7018681978102C08FEFD6
:101FD0009FEF2C960FB6F894DEBF0FBECDBFDF91FA
:101FE000CF911F910F91FF90EF90DF90CF90BF9016
:101FF000AF909F908F907F906F905F904F903F90A9
:102000002F9008950F931F93CF93DF93869F8001A6
:10201000879F100D969F100D1124C8010DD0EC0163
:10202000009721F0A80160E070E038D1CE01DF9187
:10203000CF911F910F910895CF93DF938230910537
:1020400010F482E090E0E0916803F091690320E0F1
:1020500030E0A0E0B0E0309739F14081518148177D
:102060005907B8F04817590771F482819381109786
:1020700029F013969C938E9312972CC0909369032A
:102080008093680327C02115310531F042175307AB
:1020900018F0A901DB0101C0EF019A01BD01DF01C8
:1020A0000280F381E02DD7CF21153105F9F0281BEF
:1020B000390B2430310580F48A819B8161157105CB
:1020C00021F0FB019383828304C090936903809382
:1020D0006803FE01329644C0FE01E20FF31F8193B4
:1020E000919322503109398328833AC020916603A5
:1020F00030916703232B41F42091060230910702AF
:102100003093670320936603209104023091050207
:102110002115310541F42DB73EB740910802509189
:102120000902241B350BE0916603F0916703E21767
:10213000F307A0F42E1B3F0B2817390778F0AC01EA
:102140004E5F5F4F2417350748F04E0F5F1F5093C7
:102150006703409366038193919302C0E0E0F0E04F
:10216000CF01DF91CF910895CF93DF93009709F4CA
:1021700087C0FC01329713821282C0916803D0910C
:102180006903209781F420813181280F391F8091C4
:102190006603909167038217930779F5F0936703BD
:1021A000E09366036DC0DE0120E030E0AE17BF07AC
:1021B00050F412964D915C9113979D014115510574
:1021C00009F1DA01F3CFB383A28340815181840FF7
:1021D000951F8A179B0771F48D919C911197840F1D
:1021E000951F02969183808312968D919C911397EF
:1021F000938382832115310529F4F0936903E093D9
:1022000068033EC0D9011396FC93EE9312974D914B
:102210005D91A40FB51FEA17FB0779F480819181C6
:10222000840F951F0296D90111969C938E938281FB
:10223000938113969C938E931297E0E0F0E08A814D
:102240009B81009719F0FE01EC01F9CFCE010296B7
:1022500028813981820F931F209166033091670393
:102260002817390769F4309729F4109269031092FE
:10227000680302C013821282D0936703C09366037F
:10228000DF91CF910895FC010590615070400110DD
:10229000D8F7809590958E0F9F1F0895DC0101C09F
:1022A0006D9341505040E0F70895FC01615070403B
:1022B00001900110D8F7809590958E0F9F1F08957B
:1022C0000F931F93CF93DF93182F092FEB018B816F
:1022D00081FD03C08FEF9FEF20C082FF10C04E81B1
:1022E0005F812C813D81421753077CF4E881F9819D
:1022F0009F012F5F3F4F39832883108306C0E885F5
:10230000F985812F1995892B29F72E813F812F5F20
:102310003F4F3F832E83812F902FDF91CF911F91CD
:102320000F910895FA01AA27283051F1203181F147
:10233000E8946F936E7F6E5F7F4F8F4F9F4FAF4FCD
:10234000B1E03ED0B4E03CD0670F781F891F9A1FE0
:10235000A11D680F791F8A1F911DA11D6A0F711D94
:10236000811D911DA11D20D009F468943F912AE0A0
:10237000269F11243019305D3193DEF6CF01089588
:10238000462F4770405D4193B3E00FD0C9F7F6CFB9
:10239000462F4F70405D4A3318F0495D31FD405281
:1023A000419302D0A9F7EACFB4E0A6959795879517
:1023B00077956795BA95C9F70097610571050895F6
:1023C0009B01AC010A2E06945795479537952795A2
:1023D000BA95C9F7620F731F841F951FA01D08953A
:1023E000B7FF28CB27DB821B930B0895F894FFCF10
:1023F0000100000000006A03800001314E6F646537
:1024000000324E6F6465004E6F772073656E6469AD
:102410006E673A202569200A0D006661696C656463
:102420002E0A0D0053746172746564203A2025757C
:102430006C0A0D0053656E742025692C20476F745B
:1024400020726573706F6E7365202569200A0D0018
:102450000A0D57696C6C2073656E6420616E20698B
:102460006E6372656D656E74656420692076616C5B
:102470007565206576657279207365636F6E642E6D
:102480000A0D0000000000F40A700C490A620A54A8
:042490000AD30A0061
:00000001FF
