:1000000072C000009EC000009CC000009AC00000AA
:1000100098C0000096C0000094C0000092C000008C
:1000200090C000008EC000008CC000008AC000009C
:1000300088C0000086C0000084C0000082C00000AC
:1000400080C000007EC000007CC000007AC00000BC
:1000500078C0000076C0000074C0000088C00000B6
:1000600070C000000CC3000040C300006AC0000064
:1000700068C0000066C0000064C0000062C00000EC
:1000800060C000005EC000005CC000005AC00000FC
:1000900058C0000056C0000054C0000052C000000C
:1000A00050C000004EC000004CC000004AC000001C
:1000B00048C0000046C0000044C0000042C000002C
:1000C00040C000003EC000003CC000003AC000003C
:1000D00038C0000036C0000034C0000032C000004C
:1000E00030C00000A70311241FBECFEFD1E2DEBF56
:1000F000CDBF00E00CBF12E0A0E0B2E0E2E5FAE024
:1001000000E00BBF02C007900D92A231B107D9F7F2
:1001100022E0A2E1B2E001C01D92A83BB207E1F7E4
:1001200010E0C6EED0E000E005C022970109FE0114
:100130000BBF89D4C43ED10780E00807B1F74BD389
:1001400086C45ECF26E040E855E260E070E08BE1D7
:1001500092E035C280E0FFD04AE050E0BC018BE184
:1001600092E038D468EE73E080E090E06DC01F92BA
:100170000F920FB60F9211242F933F938F939F935B
:10018000AF93BF938091130290911402A091150236
:10019000B09116023091120223E0230F2D3720F484
:1001A0000196A11DB11D05C026E8230F0296A11DD1
:1001B000B11D209312028093130290931402A09316
:1001C0001502B09316028091170290911802A09127
:1001D0001902B0911A020196A11DB11D8093170258
:1001E00090931802A0931902B0931A02BF91AF9195
:1001F0009F918F913F912F910F900FBE0F901F9065
:1002000018953FB7F8948091170290911802A09129
:100210001902B0911A0226B5A89B05C02F3F19F00C
:100220000196A11DB11D3FBF6627782F892F9A2FF8
:10023000620F711D811D911D42E0660F771F881F9F
:10024000991F4A95D1F70895CF92DF92EF92FF92CE
:10025000CF93DF936B017C01D4DFEB01C114D10498
:10026000E104F10479F0CCD3CCDF6C1B7D0B683E4C
:100270007340A0F381E0C81AD108E108F108C85121
:10028000DC4FECCFDF91CF91FF90EF90DF90CF90DC
:100290000895789484B5826084BD84B5816084BDFE
:1002A00085B5826085BD85B5816085BDEEE6F0E0EF
:1002B000808181608083E1E8F0E01082808182604B
:1002C0008083808181608083E0E8F0E080818160CC
:1002D0008083E1EBF0E0808184608083E0EBF0E0FC
:1002E000808181608083E1E9F0E0808182608083A9
:1002F000808181608083E0E9F0E08081816080839B
:10030000E1EAF0E080818260808380818160808387
:10031000E0EAF0E0808181608083E1E2F1E08081C9
:1003200082608083808181608083E0E2F1E080816F
:1003300081608083EAE7F0E080818460808380814F
:1003400082608083808181608083808180688083F7
:100350001092C1000895863308F0865320917B00E7
:10036000982F9870277F922B90937B008770209115
:10037000000290E4299F90011124822B80937C003D
:1003800080917A00806480937A0080917A0086FD63
:10039000FCCF809178002091790090E0922B089515
:1003A000FC01818D228D90E0805C9F4F821B910922
:1003B0008F7399270895FC01918D828D981731F0E4
:1003C000828DE80FF11D858D90E008958FEF9FEFEE
:1003D0000895FC01918D828D981761F0828DDF0167
:1003E000A80FB11D5D968C91928D9F5F9F73928F28
:1003F00090E008958FEF9FEF08958EE993E0892BA9
:1004000039F080E090E0892B19F098D1811125C056
:1004100080E090E0892B41F080E090E0892B21F092
:100420000E94000081111CC080E090E0892B41F007
:1004300080E090E0892B21F00E940000811113C020
:1004400080E090E0892BA1F080E090E0892B81F0A2
:100450000E94000081110AC008950E940000D8CFB8
:100460000E940000E1CF0E940000EACF0C9400003F
:100470000895FC01848DDF01A80FB11DA35ABF4F61
:100480002C91848D90E001968F739927848FA68993
:10049000B7892C93A089B1898C9180648C93938DBA
:1004A000848D981306C00288F389E02D80818F7DAA
:1004B00080830895CF93DF93EC01888D8823C1F06A
:1004C000EA89FB89808185FD05C0A889B9898C915D
:1004D00086FD0EC00FB607FCF5CF808185FFF2CFF9
:1004E000A889B9898C9185FFEDCFCE01C2DFE8CF15
:1004F000DF91CF910895CF92DF92FF920F931F93D8
:10050000CF93DF931F92CDB7DEB76C01DC015B9612
:100510009C915B975C968C915C97981307C0509662
:10052000ED91FC915197808185FD31C0F601038DDD
:1005300010E00F5F1F4F0F731127F02EF601848D0F
:10054000F81210C00FB607FCF9CFD6015096ED9106
:10055000FC915197808185FFF1CFC601698389DFC6
:100560006981ECCF838DE80FF11DE35AFF4F608363
:10057000D6015B960C935B975296ED91FC91539745
:1005800080818062808381E058968C930DC0D60173
:100590005696ED91FC91579760835096ED91FC91A2
:1005A000519780818064808381E090E00F90DF919B
:1005B000CF911F910F91FF90DF90CF900895BF9240
:1005C000CF92DF92EF92FF92CF93DF93EC016A011B
:1005D0007B01B22EE889F98982E08083411581EEA2
:1005E00058076105710599F060E079E08DE390E0CE
:1005F000A701960106D221503109410951095695AA
:10060000479537952795211580E1380790F0E889BF
:10061000F989108260E874E88EE190E0A701960104
:10062000F0D1215031094109510956954795379527
:100630002795EC85FD853083EE85FF852083188E18
:10064000EC89FD89B082EA89FB89808180618083A1
:10065000EA89FB89808188608083EA89FB898081BF
:1006600080688083EA89FB8980818F7D8083DF9128
:10067000CF91FF90EF90DF90CF90BF9008951F92A1
:100680000F920FB60F9211240BB60F922F938F93E8
:100690009F93EF93FF93E0912B02F0912C028081C6
:1006A000E0913102F091320282FD12C0908180917E
:1006B00034028F5F8F7320913502821751F0E091E1
:1006C0003402F0E0E55EFD4F958F8093340201C067
:1006D0008081FF91EF919F918F912F910F900BBE91
:1006E0000F900FBE0F901F9018951F920F920FB68C
:1006F0000F9211240BB60F922F933F934F935F935A
:100700006F937F938F939F93AF93BF93EF93FF93D9
:100710008BE192E0AEDEFF91EF91BF91AF919F919F
:100720008F917F916F915F914F913F912F910F909A
:100730000BBE0F900FBE0F901F9018958BE192E0AB
:100740002FDE21E0892B09F420E0822F08951092FA
:100750001E0210921D0288EE93E0A0E0B0E08093AC
:100760001F0290932002A0932102B093220285E001
:1007700092E090931C0280931B0285EC90E0909392
:1007800028028093270284EC90E090932A028093C1
:10079000290280EC90E090932C0280932B0281EC54
:1007A00090E090932E0280932D0282EC90E0909343
:1007B000300280932F0286EC90E090933202809377
:1007C00031021092340210923502109236021092C9
:1007D0003702089508955DDDFDDFB4DCCDEFD1E093
:1007E000B9DC2097E9F309DEFBCFCF92DF92EF92DD
:1007F000FF920F931F93CF93DF936C017A01EB016C
:10080000E60EF71E00E010E0CE15DF0561F06991FD
:10081000D601ED91FC910190F081E02DC601199572
:10082000080F191FF1CFC801DF91CF911F910F91D0
:10083000FF90EF90DF90CF9008956115710581F0E2
:10084000DB010D900020E9F7AD0141505109461B35
:10085000570BDC01ED91FC910280F381E02D19949E
:1008600080E090E00895DC01ED91FC910190F08131
:10087000E02D19940F931F93CF93DF93EC016DE05C
:10088000F2DF8C016AE0CE01EEDF800F911FDF9175
:10089000CF911F910F9108958F929F92AF92BF9227
:1008A000CF92DF92EF92FF920F931F93CF93DF933C
:1008B000CDB7DEB7A1970FB6F894DEBF0FBECDBFA0
:1008C0007C01C42EE52FCB01D22E19A221E02D15DB
:1008D00010F02AE0D22E8E010F5D1F4F8D2C912C2F
:1008E000A12CB12C6C2D7E2FA50194018AD08C2DCA
:1008F000D29E80191124015011098A3014F4805DB0
:1009000001C0895CF801808321153105410551053D
:1009100021F0C22EE32FCA01E5CFB801C7018DDF58
:10092000A1960FB6F894DEBF0FBECDBFDF91CF9179
:100930001F910F91FF90EF90DF90CF90BF90AF90FD
:100940009F908F900895CF92DF92EF92FF920F9336
:100950001F93CF93DF93EC016A017B0121153105D1
:1009600079F4E881F9810190F081E02D642FDF9125
:10097000CF911F910F91FF90EF90DF90CF9019943E
:100980002A303105D9F477FF18C06DE26CDF8C0195
:1009900044275527BA014C195D096E097F092AE0E1
:1009A000CE017ADF800F911FDF91CF911F910F91C0
:1009B000FF90EF90DF90CF9008952AE0B701A60155
:1009C000CE01DF91CF911F910F91FF90EF90DF90BB
:1009D000CF9062CF0F931F93CF93DF93EC019A01D7
:1009E000AB01662757FD6095762FADDF8C01CE01F8
:1009F00041DF800F911FDF91CF911F910F910895DB
:100A00000895A1E21A2EAA1BBB1BFD010DC0AA1F4F
:100A1000BB1FEE1FFF1FA217B307E407F50720F067
:100A2000A21BB30BE40BF50B661F771F881F991FE2
:100A30001A9469F760957095809590959B01AC012B
:100A4000BD01CF0108950790F691E02D1994F89417
:020A5000FFCFD6
:100A520001000000007B02F503D001E901DB015A2D
:020A6200020090
:00000001FF
