:10000000D5C1000004C2000002C2000000C200000E
:10001000FEC10000FCC10000FAC10000F8C10000F0
:10002000F6C10000F4C10000F2C10000F0C1000000
:10003000EEC10000ECC10000EAC10000E8C1000010
:10004000E6C1000053C20000E2C10000E0C10000B0
:10005000DEC10000DCC10000DAC100000C947508AC
:10006000D6C100000C94C80B0C94FE0BD0C100004C
:10007000CEC10000CCC10000CAC10000C8C1000050
:10008000C6C10000C4C10000C2C10000C0C1000060
:10009000BEC10000BCC10000BAC10000B8C1000070
:1000A000B6C10000B4C10000B2C10000B0C1000080
:1000B000AEC10000ACC10000AAC10000A8C1000090
:1000C000A6C10000A4C10000A2C10000A0C10000A0
:1000D0009EC100009CC100009AC1000098C10000B0
:1000E00096C10000B009B309A209A609AC09EA0942
:1000F000B709BB09C109C509C909CF09D309D7097E
:10010000EA09DD09E109E509504120506F77657280
:1001100009203D2025530D0A00435243204C656EB3
:1001200067746809203D2025530D0A004D6F6465F2
:100130006C0909203D2025530D0A0044617461209B
:100140005261746509203D2025530D0A0044594E23
:1001500050442F4645415455524500434F4E464961
:1001600047090052465F53455455500052465F437D
:10017000480900454E5F52584144445200454E5F85
:100180004141090052585F50575F50302D3600549E
:10019000585F41444452090052585F414444525F01
:1001A00050322D350052585F414444525F50302D3B
:1001B00031000D0A002530327800203078002553B8
:1001C00009203D000D0A00203078253032780025C6
:1001D0005309203D005354415455530909203D20F3
:1001E0003078253032782052585F44523D257820AF
:1001F00054585F44533D2578204D41585F52543D3B
:1002000025782052585F505F4E4F3D257820545836
:100210005F46554C4C3D25780D0A001112131415FC
:10022000160A0B0C0D0E0F0001020304054B0244CD
:10023000023C02350250415F4D41580050415F4839
:100240004947480050415F4C4F570050415F4D496E
:100250004E006702600258023136206269747300F2
:100260003820626974730044697361626C6564006C
:100270007E0274026E524632344C30312B006E5284
:100280004632344C3031009B0295028D02323530BB
:100290004B42505300324D42505300314D42505367
:1002A0000000000A0B02090C0D0E080703040100F0
:1002B000000000000000000000000000000000003E
:1002C00000000000000000000000000000121110FB
:1002D000000000000000000000000000000000001E
:1002E000000000000000000102102020080810207B
:1002F00040102040800201020108040201010204B2
:100300000810204080804020100804020180040270
:1003100001804020100804020108040201010204C7
:1003200008102040800102040810204080050505C7
:1003300005070508080808020202020A0A0808045C
:10034000040404010101010101010103030303038A
:10035000030303040707070C0C0C0C0C0C0C0C0219
:1003600002020206060606060606060B0B0B0B0B20
:100370000B0B0B00002200250028002B002E003163
:1003800000340002010000050108010B01000021FA
:1003900000240027002A002D003000330001010056
:1003A00000040107010A01001B03300C11241FBEC9
:1003B000CFEFD1E2DEBFCDBF00E00CBF12E0A0E086
:1003C000B2E0E4E7F2E200E00BBF02C007900D925A
:1003D000A03CB107D9F723E0A0ECB2E001C01D9228
:1003E000A538B207E1F713E0CCEAD3E000E006C09D
:1003F00022970109FE010BBF0E94D10CC83AD10718
:1004000080E00807A9F70E94740C0C943811F8CD0D
:10041000CF93C82FE091DE02F091DF020190F081CE
:10042000E02D682F8EED92E019958C2F992787FD8E
:100430009095CF91089560E070E088E092E00C9490
:10044000DE0C0895CF93DF931F921F92CDB7DEB7D6
:1004500084EC92E070D38091C1028F938091C002AE
:100460008F9383E192E09F938F930E94280D42E047
:1004700060EC72E084EC92E0D7D30F900F900F9075
:100480000F90811108C086E292E09F938F930E94A3
:10049000280D0F900F9084EC92E06FD470D684EC0E
:1004A00092E0E0D38823D1F342E0BE016F5F7F4F3B
:1004B00084EC92E0DAD38A818F9389818F93809143
:1004C000C1028F938091C0028F9388E392E09F9343
:1004D0008F930E94280D0F900F900F900F900F9008
:1004E0000F900F900F90DF91CF9108951F920F9270
:1004F0000FB60F9211240BB60F922F933F934F9389
:100500005F936F937F938F939F93AF93BF93EF937B
:10051000FF938091C2029091C30201969093C3020F
:100520008093C2029F938F9384E592E09F938F9371
:100530000E94280D0F900F900F900F908091C20293
:100540009091C302CC9759F480E0CDD69093C1022C
:100550008093C00277DF1092C3021092C202FF9113
:10056000EF91BF91AF919F918F917F916F915F912B
:100570004F913F912F910F900BBE0F900FBE0F9098
:100580001F90189584EC92E07CD461E084EC92E0BA
:100590002DD44FE06FE084EC92E07ED566E072E00F
:1005A00084EC92E06CD34CE052E061E084EC92E0A9
:1005B0007DD384EC92E0E1D384EC92E0DFC410922E
:1005C0008000E1E8F0E01082109285001092840033
:1005D00088E498EE909389008093880080818860F9
:1005E0008083808184608083EFE6F0E08081826098
:1005F00080830895F894E3DF7894089526E040E03E
:1006000051EE60E070E08EED92E00E94680B13DF27
:1006100081E692E09F938F930E94280DB3DFEADF7B
:100620001092C3021092C2021092C1021092C00234
:100630000F900F90089548E067E084EC92E06AC262
:100640008EBD00000DB407FEFDCF8EB508952CB50C
:100650002F7D2CBD2CB5237F2CBD2CB52C7F2CBD24
:100660002DB521602DBDFC018181EED685E090E0A5
:10067000CEC5FC01808191818913E6C6089560E0B2
:10068000E6CF61E0E4CFCF92DF92EF92FF920F933B
:100690001F93CF93DF9300D0CDB7DEB78C01F22E3E
:1006A0004A835B836983EBDF6981862F8F71C8DFA3
:1006B000E82E4A81C42E5B81D52EF40EFC1431F055
:1006C0008FEFBEDFF60181936F01F8CFC801D9DF4C
:1006D0008E2D0F900F900F90DF91CF911F910F9162
:1006E000FF90EF90DF90CF900895EF92FF921F93CD
:1006F000CF93DF931F92CDB7DEB77C016983BFDF55
:100700006981862F8F719CDF8FEF9ADF182FC701C9
:10071000B8DF812F0F90DF91CF911F91FF90EF9065
:100720000895CF92DF92EF92FF920F931F93CF9392
:10073000DF9300D0CDB7DEB78C01F22E4A835B8306
:1007400069839DDF6981862F8F71806279DFE82E52
:100750004A81C42E5B81D52EF40EFC1429F0F601DB
:1007600081916F016DDFF9CFC8018BDF8E2D0F9066
:100770000F900F90DF91CF911F910F91FF90EF900D
:10078000DF90CF900895EF92FF921F93CF93DF9366
:100790001F921F92CDB7DEB77C014A8369836FDF5A
:1007A0006981862F8F7180624BDF182F4A81842FD9
:1007B00047DFC70166DF812F0F900F90DF91CF9148
:1007C0001F91FF90EF900895AF92BF92DF92EF924A
:1007D000FF920F931F93CF93DF9300D0CDB7DEB777
:1007E0008C01FC01E380F42EE41608F4FE2CF801E1
:1007F0008481811102C0EF1801C0E12CC801298356
:100800006A837B833CDF2981822F1ADFD82E6A819D
:10081000A62E7B81B72EF60EFA1429F0F5018191F0
:100820005F010EDFF9CFEE2021F080E009DFEA94CE
:10083000FACFC80126DF8D2D0F900F900F90DF911A
:10084000CF911F910F91FF90EF90DF90BF90AF90ED
:100850000895AF92BF92DF92EF92FF920F931F9392
:10086000CF93DF931F921F92CDB7DEB78C01FC01AF
:10087000E380F42EE41608F4FE2CF8018481811143
:1008800002C0EF1801C0E12CC80169837A83F7DE4A
:1008900081E6D6DED82E6981A62E7A81B72EF60E95
:1008A000FA1431F08FEFCCDEF50181935F01F8CFC0
:1008B000EE2021F08FEFC4DEEA94FACFC801E1DE2A
:1008C0008D2D0F900F90DF91CF911F910F91FF9081
:1008D000EF90DF90BF90AF900895EF92FF921F933B
:1008E000CF93DF931F92CDB7DEB77C016983C7DE5C
:1008F0006981862FA5DE182FC701C3DE812F0F90D7
:10090000DF91CF911F91FF90EF90089562EEE5CFB8
:1009100061EEE3CF6FEFE1CF862F90E0262F2170BD
:100920001F922F9395958795877099279F938F9303
:1009300064FB882780F91F928F9365FB882780F9D5
:100940001F928F9366FB882780F91F928F931F92C7
:100950006F9385ED91E09F938F930E94390D8DB732
:100960009EB70E960FB6F8949EBF0FBE8DBF08952A
:10097000CF92DF92EF92FF920F931F93CF93DF936B
:100980001F92CDB7DEB78C01F22E7F936F93EFEC01
:10099000F1E0FF93EF9349830E94390D4981F40EF2
:1009A0000F900F900F900F9037ECC32E31E0D32EA5
:1009B0004F1591F0EE24E394E40E642FC80195DE08
:1009C0001F928F93DF92CF920E94390D0F900F905C
:1009D0000F900F904E2DECCF84EC91E09F938F936E
:1009E0000E94390D0F900F900F90DF91CF911F91C2
:1009F0000F91FF90EF90DF90CF9008952F923F924C
:100A00004F925F926F927F928F929F92AF92BF921E
:100A1000CF92DF92EF92FF920F931F93CF93DF93CA
:100A20001F92CDB7DEB77C01322E4DB65EB67F93F6
:100A30006F938EEB91E09F938F9349830E94390DC2
:100A40003981330E0F900F900F900F904AEBC42E08
:100A500041E0D42E55EBA52E51E0B52E3315D1F142
:100A60006DB67EB6F7012285822E912C8DB79EB78A
:100A7000881999090FB6F8949EBF0FBE8DBF0DB7A8
:100A80001EB70F5F1F4F22242394230EA801632F4C
:100A9000C701F9DDDF92CF92ECD7800E911E0F9047
:100AA0000F90F1E08F1A91088016910660F0F40122
:100AB00080811F928F93BF92AF92DBD70F900F90E0
:100AC0000F900F90EECF0FB6F8947EBE0FBE6DBEA6
:100AD000322DC4CF82EB91E09F938F93CAD70F90B2
:100AE0000F900FB6F8945EBE0FBE4DBE0F90DF9113
:100AF000CF911F910F91FF90EF90DF90CF90BF901B
:100B0000AF909F908F907F906F905F904F903F90AD
:100B10002F900895FC0160834183128280E28383D9
:100B2000148285E0828715820895462F603808F088
:100B30004FE765E028CECF93DF93EC0160E099DDCD
:100B40008B859C8564D36DE1CE01CFDD81FF05C02F
:100B50008B859C855CD3CE01DBDE60E0CE01C5DDFC
:100B6000482F4E7F60E0CE010EDE62E0CE01BDDD9B
:100B7000E7E2F2E0E49121E030E001C0220FEA95E3
:100B8000EAF7822B482F62E0CE01DF91CF91FBCDB7
:100B9000CF93DF93EC0160E0A8DD81FD0FC060E042
:100BA000CE01A3DD482F426060E0CE01ECDD65E0C0
:100BB00070E080E090E0DF91CF9104C3DF91CF91AE
:100BC00008950F93CF93DF93EC01222311F020EBD4
:100BD00001C020EACE01F8DD002331F061E0CE0152
:100BE000DF91CF910F9145CDDF91CF910F91089576
:100BF0000F93CF93DF93EC0101E0E3DFCE018ADEB8
:100C00008073E1F360E0CE0134DD40E767E0CE01C0
:100C1000BADD84FF04C0CE017BDE80E001C081E04C
:100C2000DF91CF910F91089520E0E2CF0F931F93B2
:100C3000CF93DF938C01EB0167E157DD80FD0AC0A4
:100C4000209751F0C80166DE90E0959587958770F2
:100C5000888302C080E001C081E0DF91CF911F91C5
:100C60000F91089560E070E0E1CFCF93DF93EC0146
:100C7000F0DD40E767E0CE01DF91CF9184CD0F93A7
:100C80001F93CF93DF93EC018B012A85AB016AE0C0
:100C900048DD2A85A80160E1CE0143DD4B8161E199
:100CA000CE01DF91CF911F910F916DCDFF920F93E8
:100CB0001F93CF93DF93EC01F62E8A01611106C0DA
:100CC0004A8550E0B801059670D607C086E08617C1
:100CD00008F433C081E0681307C0EF2DF0E0EF5D4A
:100CE000FD4F64912A8506C0E62FF0E0EF5DFD4FD1
:100CF000649121E0A801CE0114DD0F2D10E0F80170
:100D0000E55EFD4F64914B81CE013DDD62E0CE0199
:100D1000ECDCF801E95DFD4F049121E030E001C019
:100D2000220F0A95EAF7822B482F62E0CE01DF916D
:100D3000CF911F910F91FF9026CDDF91CF911F9101
:100D40000F91FF9008951F93CF93DF93EC01162F1F
:100D500062E0CBDCE12FF0E0E95DFD4FE49141E0A2
:100D600050E001C0440FEA95EAF74095482362E05D
:100D7000CE01DF91CF911F9106CDCF93DF93EC0190
:100D800007DF60E0CE01B1DC482F416060E0CE01BA
:100D9000FADC40E767E0CE01F6DC61E0CE0169DC19
:100DA0008D81882341F02A85AE014B5F5F4F6AE059
:100DB000CE01B7DC03C060E0CE01C5DF6DE1CE013E
:100DC00094DC81FF04C0CE01DF91CF91A1CDDF91F2
:100DD000CF910895CF93DF93EC0151DC80E530DCB7
:100DE00083E72EDCCE01DF91CF914BCC662311F04F
:100DF0004FE301C040E061E0C6CC66E076DC86707F
:100E000086950895EF92FF920F931F93CF93DF93F0
:100E10001F92CDB7DEB77C018B0166E066DC582FF0
:100E2000577D0230110531F450620BE910E020E0EB
:100E300030E00DC00130110529F005E510E020E09B
:100E400030E005C0586001E410E020E030E0F70138
:100E50000387148725873687452F66E0C7015983A6
:100E600092DC66E0C70141DC91E05981851390E096
:100E7000892F0F90DF91CF911F910F91FF90EF90ED
:100E80000895CF93DF93EC0188819981891711F040
:100E900061E0A1D289819881981711F061E09BD21D
:100EA00003D160E0CE01E5DB61E0CE01D0DB65E09F
:100EB00070E080E090E086D14CE060E0CE0163DC41
:100EC0004FE564E0CE015FDC62E070E0CE019ADFC6
:100ED000882311F081E08A8360E070E0CE0192DF28
:100EE000CE0178DF40E06DE1CE014DDC40E06CE109
:100EF000CE0149DC40E767E0CE0145DC6CE4CE0181
:100F000014DECE0103DDCE0103DDCE0141DE60E063
:100F1000CE01EBDB482F4E7F60E0CE0134DC80E079
:100F2000DF91CF91089566E0E0DB282F2872203210
:100F300031F081E090E0283021F080E0089582E0F7
:100F400090E008951F93CF93DF93EC0160E0CDDB39
:100F5000182F61E0CE01C9DB13FD02C0882329F000
:100F600012FF06C082E090E005C080E090E002C081
:100F700081E090E0DF91CF911F910895CF93DF93AF
:100F8000EC01C8DC682FCE01C7DC22E04AE065EA4C
:100F900071E0CE0133DD24E04CE068E971E0CE0180
:100FA000E7DC21E040E16FE871E0CE0127DD26E0DB
:100FB00041E164E871E0CE01DBDC21E041E06DE776
:100FC00071E0CE01D5DC21E042E063E771E0CE01C3
:100FD000CFDC21E045E06CE671E0CE01C9DC21E028
:100FE00046E063E671E0CE01C3DC21E040E06BE562
:100FF00071E0CE01BDDC22E04CE16DE471E0CE0198
:10100000B7DCCE0190DF880F991F89579D4FFC01F7
:10101000859194919F938F938BE391E09F938F930E
:1010200028D5EA81F0E0EE0FFF1FE059FD4F8591D2
:1010300094919F938F938CE291E09F938F9319D516
:10104000CE0180DF880F991F8E5A9D4FFC0185913C
:1010500094919F938F9389E191E09F938F9309D50A
:10106000CE01CBDEE82FF0E0EE0FFF1FE35DFD4F7A
:10107000859194919F938F9388E091E09F938F93B4
:10108000F8D48DB79EB740960FB6F8949EBF0FBEAA
:101090008DBFDF91CF91089520E1629FB0011124AF
:1010A0004F70462B64E06FCBCF93CFB7F89480910D
:1010B000D402811112C061E085E3C6D161E085E30D
:1010C0008AD18CB580618CBD8CB580648CBD61E0AB
:1010D00084E381D161E083E37ED18091D4028F5F8C
:1010E0008093D402CFBFCF9108951F920F920FB675
:1010F0000F9211242F933F938F939F93AF93BF939E
:101100008091D6029091D702A091D802B091D902D5
:101110003091D50223E0230F2D3720F40196A11D35
:10112000B11D05C026E8230F0296A11DB11D209315
:10113000D5028093D6029093D702A093D802B093A1
:10114000D9028091DA029091DB02A091DC02B09189
:10115000DD020196A11DB11D8093DA029093DB029E
:10116000A093DC02B093DD02BF91AF919F918F916C
:101170003F912F910F900FBE0F901F9018953FB782
:10118000F8948091DA029091DB02A091DC02B09198
:10119000DD0226B5A89B05C02F3F19F00196A11DC1
:1011A000B11D3FBF6627782F892F9A2F620F711DBF
:1011B000811D911D42E0660F771F881F991F4A9578
:1011C000D1F70895CF92DF92EF92FF92CF93DF9302
:1011D0006B017C01D4DFEB01C114D104E104F10403
:1011E00079F0B6D3CCDF6C1B7D0B683E7340A0F367
:1011F00081E0C81AD108E108F108C851DC4FECCFF2
:10120000DF91CF91FF90EF90DF90CF9008950197FD
:1012100039F0880F991F880F991F02970197F1F7EE
:101220000895789484B5826084BD84B5816084BD5E
:1012300085B5826085BD85B5816085BDEEE6F0E04F
:10124000808181608083E1E8F0E0108280818260AB
:101250008083808181608083E0E8F0E0808181602C
:101260008083E1EBF0E0808184608083E0EBF0E05C
:10127000808181608083E1E9F0E080818260808309
:10128000808181608083E0E9F0E0808181608083FB
:10129000E1EAF0E0808182608083808181608083E8
:1012A000E0EAF0E0808181608083E1E2F1E080812A
:1012B00082608083808181608083E0E2F1E08081D0
:1012C00081608083EAE7F0E08081846080838081B0
:1012D0008260808380818160808380818068808358
:1012E0001092C1000895863308F0865320917B0048
:1012F000982F9870277F922B90937B008770209176
:10130000120290E4299F90011124822B80937C008B
:1013100080917A00806480937A0080917A0086FDC3
:10132000FCCF809178002091790090E0922B089575
:1013300090E0FC013197E231F10508F04BC0EE5826
:10134000FF4F29C3809180008F7703C08091800078
:101350008F7D80938000089580918000877FF9CFF2
:1013600084B58F7702C084B58F7D84BD0895809148
:10137000B0008F7703C08091B0008F7D8093B00064
:101380000895809190008F7707C0809190008F7DA5
:1013900003C080919000877F809390000895809192
:1013A000A0008F7707C08091A0008F7D03C080913F
:1013B000A000877F8093A0000895809120018F77FF
:1013C00007C0809120018F7D03C080912001877F1D
:1013D000809320010895CF93DF9390E0FC01E951C1
:1013E000FD4F2491FC01E35DFC4F8491882349F17A
:1013F00090E0880F991FFC01E357FC4FA591B49131
:101400008D589C4FFC01C591D4919FB7611108C0C4
:10141000F8948C91209582238C93888182230AC032
:10142000623051F4F8948C91322F309583238C9351
:101430008881822B888304C0F8948C91822B8C93B2
:101440009FBFDF91CF9108950F931F93CF93DF93A9
:101450001F92CDB7DEB7282F30E0F901EF55FD4FD1
:101460008491F901E951FD4F1491F901E35DFC4FBD
:1014700004910023C1F0882319F0698359DF698141
:10148000E02FF0E0EE0FFF1FED58FC4FA591B49157
:101490009FB7F8948C91611103C01095812301C00E
:1014A000812B8C939FBF0F90DF91CF911F910F9154
:1014B0000895FC01818D228D90E0805C9F4F821BFE
:1014C00091098F7399270895FC01918D828D98174A
:1014D00031F0828DE80FF11D858D90E008958FEF3A
:1014E0009FEF0895FC01918D828D981761F0828D98
:1014F000DF01A80FB11D5D968C91928D9F5F9F7348
:10150000928F90E008958FEF9FEF089587E29CE01F
:10151000892B39F080E090E0892B19F098D1811166
:1015200025C080E090E0892B41F080E090E0892B9D
:1015300021F00E94000081111CC080E090E0892B06
:1015400041F080E090E0892B21F00E9400008111A1
:1015500013C080E090E0892BA1F080E090E0892B1F
:1015600081F00E94000081110AC008950E940000CD
:10157000D8CF0E940000E1CF0E940000EACF0C9477
:1015800000000895FC01848DDF01A80FB11DA35A4E
:10159000BF4F2C91848D90E001968F739927848F93
:1015A000A689B7892C93A089B1898C9180648C938A
:1015B000938D848D981306C00288F389E02D808175
:1015C0008F7D80830895CF93DF93EC01888D8823EE
:1015D000C1F0EA89FB89808185FD05C0A889B989A8
:1015E0008C9186FD0EC00FB607FCF5CF808185FF7C
:1015F000F2CFA889B9898C9185FFEDCFCE01C2DFEA
:10160000E8CFDF91CF910895CF92DF92FF920F93B1
:101610001F93CF93DF931F92CDB7DEB76C01DC0130
:101620005B969C915B975C968C915C97981307C036
:101630005096ED91FC915197808185FD31C0F60166
:10164000038D10E00F5F1F4F0F731127F02EF6016F
:10165000848DF81210C00FB607FCF9CFD601509652
:10166000ED91FC915197808185FFF1CFC60169838F
:1016700089DF6981ECCF838DE80FF11DE35AFF4FBD
:101680006083D6015B960C935B975296ED91FC912B
:10169000539780818062808381E058968C930DC03F
:1016A000D6015696ED91FC91579760835096ED9137
:1016B000FC91519780818064808381E090E00F905D
:1016C000DF91CF911F910F91FF90DF90CF90089500
:1016D000BF92CF92DF92EF92FF92CF93DF93EC0114
:1016E0006A017B01B22EE889F98982E08083411585
:1016F00081EE58076105710599F060E079E08DE3AE
:1017000090E0A701960125D12150310941095109E5
:101710005695479537952795211580E1380790F024
:10172000E889F989108260E874E88EE190E0A70109
:1017300096010FD12150310941095109569547951C
:1017400037952795EC85FD853083EE85FF852083D1
:10175000188EEC89FD89B082EA89FB8980818061DD
:101760008083EA89FB89808188608083EA89FB899C
:10177000808180688083EA89FB8980818F7D808376
:10178000DF91CF91FF90EF90DF90CF90BF900895C1
:101790001F920F920FB60F9211240BB60F922F9338
:1017A0008F939F93EF93FF93E091EE02F091EF02FE
:1017B0008081E091F402F091F50282FD12C09081E7
:1017C0008091F7028F5F8F732091F802821751F09A
:1017D000E091F702F0E0E252FD4F958F8093F7021F
:1017E00001C08081FF91EF919F918F912F910F9078
:1017F0000BBE0F900FBE0F901F9018951F920F9267
:101800000FB60F9211240BB60F922F933F934F9365
:101810005F936F937F938F939F93AF93BF93EF9358
:10182000FF938EED92E0AEDEFF91EF91BF91AF910D
:101830009F918F917F916F915F914F913F912F91E8
:101840000F900BBE0F900FBE0F901F9018958EED4E
:1018500092E02FDE21E0892B09F420E0822F089509
:101860001092E1021092E00288EE93E0A0E0B0E076
:101870008093E2029093E302A093E402B093E50226
:1018800083EB92E09093DF028093DE0285EC90E0A0
:101890009093EB028093EA0284EC90E09093ED0247
:1018A0008093EC0280EC90E09093EF028093EE0244
:1018B00081EC90E09093F1028093F00282EC90E052
:1018C0009093F3028093F20286EC90E09093F502FD
:1018D0008093F4021092F7021092F8021092F9022B
:1018E0001092FA02089508959CDCFDDF0E94FE022A
:1018F000C6E8DAE00E9421022097E1F307DEFACF82
:10190000CF92DF92EF92FF920F931F93CF93DF93CB
:101910006C017A01EB01E60EF71E00E010E0CE1537
:10192000DF0561F06991D601ED91FC910190F081A4
:10193000E02DC6011995080F191FF1CFC801DF91DD
:10194000CF911F910F91FF90EF90DF90CF9008956E
:101950000895A1E21A2EAA1BBB1BFD010DC0AA1FF0
:10196000BB1FEE1FFF1FA217B307E407F50720F008
:10197000A21BB30BE40BF50B661F771F881F991F83
:101980001A9469F760957095809590959B01AC01CC
:10199000BD01CF010895EE0FFF1F0590F491E02DDA
:1019A00019940790F691E02D1994FB01DC0102C017
:1019B00001900D9241505040D8F708950F931F9316
:1019C000CF93DF93EC018B01009731F46115710522
:1019D00019F480E090E037C06EE070E081E090E0C4
:1019E00059D2FC010097A9F380E883830115110502
:1019F00071F01387028781E8838380917B03909144
:101A00007C03892B21F4F0937C03E0937B032097E4
:101A1000C9F0D187C08783818260838380917D03F1
:101A200090917E03892B71F4F0937E03E0937D0304
:101A300080917F0390918003892B21F4F0938003A0
:101A4000E0937F03CF01DF91CF911F910F91089514
:101A5000CF93DF93CDB7DEB7FE01369661917191DA
:101A6000AF0180917D0390917E0326D0DF91CF91CD
:101A700008950F931F93CF93DF93CDB7DEB7FE0189
:101A80003896619171910DE713E0D8018D919C9189
:101A9000DC0113962C911397286013962C93AF01B9
:101AA0000BD0D801ED91FC912381277F2383DF9117
:101AB000CF911F910F9108952F923F924F925F9275
:101AC0006F927F928F929F92AF92BF92CF92DF924E
:101AD000EF92FF920F931F93CF93DF93CDB7DEB7B3
:101AE0002C970FB6F894DEBF0FBECDBF7C016B0103
:101AF0008A01FC0117821682838181FFB0C1CE0169
:101B000001964C01F7019381F60193FD859193FFB6
:101B100081916F01882309F49EC1853239F493FDC8
:101B2000859193FF81916F01853221F4B70190E097
:101B30000FD3E8CF512C312C20E02032A0F48B328F
:101B400069F030F4803259F0833269F420612CC09E
:101B50008D3239F0803339F4216026C02260246050
:101B600023C0286021C027FD27C030ED380F3A3050
:101B700078F426FF06C0FAE05F9E300D1124532E44
:101B800013C08AE0389E300D1124332E20620CC021
:101B90008E3221F426FD5FC1206406C08C3611F41C
:101BA000206802C0883641F4F60193FD859193FFC9
:101BB00081916F018111C1CF982F9F7D95549330F2
:101BC00028F40C5F1F4FFFE3F9830DC0833631F01B
:101BD000833771F0833509F057C021C0F801808147
:101BE00089830E5F1F4F44244394512C540114C029
:101BF0003801F2E06F0E711CF801A080B18026FF61
:101C000003C0652D70E002C06FEF7FEFC5012C8728
:101C100094D22C0183012C852F77222E16C03801F7
:101C2000F2E06F0E711CF801A080B18026FF03C0A6
:101C3000652D70E002C06FEF7FEFC5012C876BD27E
:101C40002C012C852068222E830123FC19C0832DB2
:101C500090E048165906A0F4B70180E290E078D2EF
:101C60003A94F5CFF50127FC859127FE81915F011C
:101C7000B70190E06DD231103A94F1E04F1A51085B
:101C80004114510479F7DEC0843611F0893631F5FC
:101C9000F80127FF07C060817181828193810C5F09
:101CA0001F4F08C060817181882777FD8095982F2C
:101CB0000E5F1F4F2F76B22E97FF09C0909580952B
:101CC000709561957F4F8F4F9F4F2068B22E2AE00D
:101CD00030E0A4016FD2A82EA81843C0853729F49C
:101CE0002F7EB22E2AE030E025C0F22FF97FBF2EE2
:101CF0008F36C1F018F4883579F0ADC0803719F00F
:101D0000883721F0A8C02F2F2061B22EB4FE0DC05D
:101D10008B2D8460B82E09C024FF0AC09F2F9660C7
:101D2000B92E06C028E030E005C020E130E002C056
:101D300020E132E0F801B7FE07C060817181828145
:101D400093810C5F1F4F06C06081718180E090E03D
:101D50000E5F1F4FA4012ED2A82EA818FB2DFF77CF
:101D6000BF2EB6FE0BC02B2D2E7FA51450F4B4FE53
:101D70000AC0B2FC08C02B2D2E7E05C07A2C2B2D5C
:101D800003C07A2C01C0752C24FF0DC0FE01EA0DA2
:101D9000F11D8081803311F4297E09C022FF06C025
:101DA0007394739404C0822F867809F0739423FD92
:101DB00012C020FF06C05A2C731418F4530C571885
:101DC000732C731460F4B70180E290E02C87C0D1CB
:101DD00073942C85F6CF731410F4371801C0312C8E
:101DE00024FF11C0B70180E390E02C87B1D12C858E
:101DF00022FF16C021FF03C088E590E002C088E7FB
:101E000090E0B7010CC0822F867851F021FD02C00E
:101E100080E201C08BE227FD8DE2B70190E098D10E
:101E2000A51430F4B70180E390E092D15A94F8CF32
:101E3000AA94F401EA0DF11D8081B70190E088D1E8
:101E4000A110F6CF332009F45DCEB70180E290E017
:101E50007FD13A94F7CFF7018681978102C08FEF47
:101E60009FEF2C960FB6F894DEBF0FBECDBFDF916B
:101E7000CF911F910F91FF90EF90DF90CF90BF9087
:101E8000AF909F908F907F906F905F904F903F901A
:101E90002F9008950F931F93CF93DF93869F800118
:101EA000879F100D969F100D1124C8010DD0EC01D5
:101EB000009721F0A80160E070E038D1CE01DF91F9
:101EC000CF911F910F910895CF93DF9382309105A9
:101ED00010F482E090E0E0918303F091840320E02D
:101EE00030E0A0E0B0E0309739F1408151814817EF
:101EF0005907B8F04817590771F4828193811097F8
:101F000029F013969C938E9312972CC09093840380
:101F10008093830327C02115310531F04217530701
:101F200018F0A901DB0101C0EF019A01BD01DF0139
:101F30000280F381E02DD7CF21153105F9F0281B60
:101F4000390B2430310580F48A819B81611571053C
:101F500021F0FB019383828304C0909384038093D8
:101F60008303FE01329644C0FE01E20FF31F81930A
:101F7000919322503109398328833AC020918103FB
:101F800030918203232B41F420910202309103020D
:101F9000309382032093810320910002309101024B
:101FA0002115310541F42DB73EB7409104025091FF
:101FB0000502241B350BE0918103F0918203E217A7
:101FC000F307A0F42E1B3F0B2817390778F0AC015C
:101FD0004E5F5F4F2417350748F04E0F5F1F509339
:101FE0008203409381038193919302C0E0E0F0E08B
:101FF000CF01DF91CF910895CF93DF93009709F43C
:1020000087C0FC01329713821282C0918303D09162
:102010008403209781F420813181280F391F80911A
:102020008103909182038217930779F5F0938203DD
:10203000E09381036DC0DE0120E030E0AE17BF0702
:1020400050F412964D915C9113979D0141155105E5
:1020500009F1DA01F3CFB383A28340815181840F68
:10206000951F8A179B0771F48D919C911197840F8E
:10207000951F02969183808312968D919C91139760
:10208000938382832115310529F4F0938403E0932F
:1020900083033EC0D9011396FC93EE9312974D91A2
:1020A0005D91A40FB51FEA17FB0779F48081918138
:1020B000840F951F0296D90111969C938E9382816D
:1020C000938113969C938E931297E0E0F0E08A81BF
:1020D0009B81009719F0FE01EC01F9CFCE01029629
:1020E00028813981820F931F2091810330918203CF
:1020F0002817390769F4309729F410928403109255
:10210000830302C013821282D0938203C09381039F
:10211000DF91CF910895FC0105906150704001104E
:10212000D8F7809590958E0F9F1F0895DC0101C010
:102130006D9341505040E0F70895FC0161507040AC
:1021400001900110D8F7809590958E0F9F1F0895EC
:102150000F931F93CF93DF93182F092FEB018B81E0
:1021600081FD03C08FEF9FEF20C082FF10C04E8122
:102170005F812C813D81421753077CF4E881F9810E
:102180009F012F5F3F4F39832883108306C0E88566
:10219000F985812F1995892B29F72E813F812F5F92
:1021A0003F4F3F832E83812F902FDF91CF911F913F
:1021B0000F910895FA01AA27283051F1203181F1B9
:1021C000E8946F936E7F6E5F7F4F8F4F9F4FAF4F3F
:1021D000B1E03ED0B4E03CD0670F781F891F9A1F52
:1021E000A11D680F791F8A1F911DA11D6A0F711D06
:1021F000811D911DA11D20D009F468943F912AE012
:10220000269F11243019305D3193DEF6CF010895F9
:10221000462F4770405D4193B3E00FD0C9F7F6CF2A
:10222000462F4F70405D4A3318F0495D31FD4052F2
:10223000419302D0A9F7EACFB4E0A6959795879588
:1022400077956795BA95C9F7009761057105089567
:102250009B01AC010A2E0694579547953795279513
:10226000BA95C9F7620F731F841F951FA01D0895AB
:04227000F894FFCF10
:10227400000085038000314E6F646500324E6F6448
:102284006500014E6F772073656E64696E673A204E
:102294002569200A0D004661696C656420746F200D
:1022A40073656E642E0A0D0053656E742025692CC7
:1022B40020476F7420726573706F6E736520256993
:1022C400200A0D000A5365636F6E64733A20256912
:1022D400000A0D57656C636F6D6520746F2067612C
:1022E4007264656E5F6175746F6D6174696F6E2180
:1022F4002041726475696E6F2077696C6C20636F1E
:102304006D6D756E696361746520776974682052B8
:102314006173706265727279205069210A0D000040
:10232400000000040B800C590A720A640AE30A00D4
:00000001FF
